:020000040800F2
:10000000C05200205D020008B3200008371D000820
:10001000B12000080F04000865310008000000004E
:100020000000000000000000000000009D0100082A
:100030004504000800000000F901000841270008FD
:1000400077020008770200087702000877020008AC
:1000500077020008B5200008770200087702000840
:10006000770200087702000877020008770200088C
:10007000770200087702000877020008770200087C
:10008000770200087702000877020008770200086C
:10009000770200087702000877020008770200085C
:1000A000770200087702000877020008770200084C
:1000B00077020008012800080D28000877020008D0
:1000C0007702000877020008770200082924000858
:1000D000770200085931000877020008770200080B
:1000E000770200087702000877020008770200080C
:1000F00077020008770200087702000877020008FC
:1001000077020008770200087702000877020008EB
:1001100077020008770200087702000877020008DB
:1001200077020008770200087702000877020008CB
:1001300077020008770200087702000877020008BB
:1001400077020008770200087702000877020008AB
:10015000770200087702000877020008770200089B
:10016000770200087702000877020008770200088B
:1001700077020008770200087702000800000000FC
:100180007702000877020008DFF80CD000F002F9CF
:100190000048004715350008C05200202C4B196854
:1001A0000868B0E8F04F80F30988BFF36F8F4FF015
:1001B000000080F3118870470000000008480068C4
:1001C000006880F308884FF0000080F3148862B65E
:1001D00061B6BFF34F8FBFF36F8F00DF00BF00BF6B
:1001E00008ED00E0DFF80C00016841F470010160E7
:1001F000704700BF88ED00E0EFF30980BFF36F8F19
:10020000134B1A681EF0100F08BF20ED108A20E96A
:10021000F04F106009B44FF0500080F31188BFF325
:100220004F8FBFF36F8F05F02BFC4FF0000080F372
:10023000118809BC19680868B0E8F04F1EF0100F6B
:1002400008BFB0EC108A80F30988BFF36F8F704746
:10025000A8000020EFF305807047000006488047A3
:1002600006480047FEE7FEE7FEE7FEE7FEE7FEE79B
:10027000FEE7FEE7FEE7FEE7F12700088901000838
:100280002DE9F05F0546002092469B4688460646CB
:10029000814640241BE0284641464746224600F05E
:1002A00069F853465A46C01A914110D31146184670
:1002B000224600F050F82D1A67EB01084F462246FF
:1002C0000120002100F047F817EB00094E41201EE5
:1002D000A4F10104DFDC484631462A464346BDE826
:1002E000F09F40EA01039B0703D009E008C9121FF1
:1002F00008C0042AFAD203E011F8013B00F8013BE0
:10030000521EF9D27047D2B201E000F8012B491E0B
:10031000FBD270470022F6E710B513460A460446A2
:100320001946FFF7F0FF204610BD30B50B460146D9
:1003300000202022012409E021FA02F59D4205D384
:1003400003FA02F5491B04FA02F52844151EA2F12E
:100350000102F1DC30BD202A04DB203A00FA02F170
:10036000002070479140C2F1200320FA03F31943A3
:1003700090407047202A04DB203A21FA02F0002145
:10038000704721FA02F3D040C2F1200291400843A5
:1003900019467047064C074D06E0E06840F001033F
:1003A00094E8070098471034AC42F6D3FFF7F0FE0C
:1003B000646500088465000870B58C1810F8015B4E
:1003C00015F0070301D110F8013B2A1106D110F8EE
:1003D000012B03E010F8016B01F8016B5B1EF9D1F2
:1003E0002B0705D40023521E0DD401F8013BFAE778
:1003F00010F8013BCB1A921C03E013F8015B01F8E3
:10040000015B521EF9D5A142D8D3002070BDFEE792
:1004100070B504464FF6FF7000234AF201050EE066
:1004200014F8012B50400022C6074FEA500000D0BC
:100430006840521CD2B2082AF6D35B1CDBB28B4256
:10044000EED370BD704772B6FEE770B5040003D0FE
:1004500094F8200010B104E0012070BD204600F0A7
:1004600081F82068016841F00101016000F030FA74
:100470000546052604E000F02BFA401B0A2811D897
:1004800020684068C007F6D02068016821F00201AA
:10049000016000F01DFA05460BE000F019FA401B60
:1004A0000A2806D9606A40F40030606284F820604F
:1004B000D2E7206840688007EFD4207E01282068BA
:1004C00001683DD021F080010160607E0128206834
:1004D000016838D021F040010160A07E0128206829
:1004E000016833D021F020010160E07E01282068FE
:1004F00001682ED041F010010160207F01282068A2
:10050000016829D021F008010160607F012820687E
:10051000016824D021F004010160D4E902010843FC
:10052000D4E90412114308436168491E0843216855
:10053000C86100206062012084F82000002070BDA6
:1005400041F08001C0E741F04001C5E741F02001E2
:10055000CAE721F01001CFE741F00801D4E741F0EC
:100560000401D9E710B586B0044614216846FFF7A8
:10057000D1FE18492068884229D117480021026815
:1005800042F080620260026802F0806205920268B6
:1005900042F000720260006800F0007005900E48A2
:1005A0001038026842F002020260006800F00200A7
:1005B00005904FF4405000900220CDE90101032046
:1005C0000390092004906946044800F077F806B0CB
:1005D00010BD0000006800404038024000040240A6
:1005E0002DE9F0410446876D00F072F9064694F853
:1005F00035000025022806D08020606584F834503C
:100600000120BDE8F0812068016821F01601016039
:100610002068416921F080014161206C08B9A06C1B
:1006200020B12068016821F008010160206801689C
:1006300021F0010101600CE000F04AF9801B05285F
:1006400007D920206065032084F8350084F83450F1
:10065000D7E720680068C007EED194F85C103F200F
:100660008840B860012084F8350084F834500020B8
:10067000C7E790F83510022903D080214165012099
:100680007047052180F835100068016821F00101EC
:10069000016000207047000070B5044600F018F9B2
:1006A0000546601C02D004480078044400F010F9AC
:1006B000401BA042FAD370BD980000202DE9F84FEE
:1006C000DFF8BCA10022012503264FF00F090AF133
:1006D000040BAAF1040E00BF0B6805FA02F42340D4
:1006E000A34270D10F7907F00307012F01D0022F29
:1006F00016D187684FEA420806FA08FC27EA0C0779
:10070000D1F80CC00CFA08FC4CEA070CC0F808C081
:100710004768A7430C79C4F3001494403C434460F9
:100720000C79E443A4070AD0C4684FEA420C06FAE5
:100730000CF7BC438F6807FA0CF72743C7600C79A6
:1007400004F00304022C12D1D40800EB840CDCF872
:1007500020405707FF0E09FA07F824EA0804D1F8E9
:10076000108008FA07F848EA0408CCF820800468EA
:100770004FEA420C06FA0CF7BC430F7907F0030767
:1007800007FA0CF7274307604C6814F4403F70D019
:100790003C4C276847F480472760246822F0030711
:1007A00004F480440094384C07EB040CDCF808484F
:1007B00097074FEA177809FA08F7BC43334FB84256
:1007C00002D1002724E054E0314FB84201D1012783
:1007D0001EE0304FB84201D1022719E02E4FB84237
:1007E00001D1032714E02D4FB84201D104270FE0B7
:1007F0002B4FB84201D105270AE02A4FB84201D158
:10080000062705E0284FB84201D1072700E0082756
:1008100007FA08F72743CCF80878DAF8004057467B
:10082000D1F804C09C435FEACC2C00D51C433C604B
:10083000DBF800405F46D1F804C09C435FEA8C2C93
:1008400000D51C433C60DEF800407746D1F804C078
:100850009C435FEA8C3C00D51C433C60084F083F3A
:100860003C68D1F804C09C435FEACC3C00D51C43F3
:100870003C60521C102AFFF42FAFBDE8F88F000037
:10088000083C014044380240003001400000024072
:100890000004024000080240000C02400010024028
:1008A0000014024000180240001C02400069084089
:1008B00000D001207047426921EA02030A4043EA5E
:1008C0000241816170470AB1816170470904FBE709
:1008D0000148806870470000980000200248816845
:1008E0000278114481607047980000200B4810B5D1
:1008F000016841F400710160016841F480610160A8
:10090000016841F480710160032000F0A9F80F2014
:1009100000F006F800F050F8002010BD003C024046
:1009200030B505461F4887B00024016841F0040136
:100930000160006806A900F00400009001A800F022
:100940003BF90498A8B100F057F940001649174A3E
:10095000B0FBF1F11648491E026040F2E732C0E9EF
:100960000324C0E90114846100F0AAFD040003D04F
:1009700015E000F041F9E9E70D4800F0EDFD040055
:100980000DD11E2000F03EF8102D07D2002229467E
:100990001E2000F045F80748056000E0012407B07C
:1009A000204630BD4038024040420F000008004061
:1009B000A00500209C000020114808B5016841F402
:1009C00080410160006800F4804000900C48001FE6
:1009D000016841F0805101600068002200F0805001
:1009E00000900F21901E00F01BF805210022084600
:1009F00000F016F8BDE80840052000F003B800003C
:100A000044380240002809DB00F01F020121914018
:100A10004009800000F1E020C0F80011704700009C
:100A2000F0B40E4B1B680C46C3F30223C3F1070559
:100A3000042D00D90425191D072901D2002300E047
:100A4000DB1E012606FA05F1491E214099409E4011
:100A5000761E16403143F0BC02F018BC0CED00E0ED
:100A6000064900F0070208684FF6FF03184040EA05
:100A70000220034A10430860704700000CED00E0BC
:100A80000000FA052DE9F0470E46050065D0DFF8B5
:100A90001481D8F80000F7B200F00700B04207D286
:100AA00088F80070D8F8000000F00700B04254D178
:100AB00028683D4C810712D5400703D5206840F4D3
:100AC000E05020602878000703D5206840F460409B
:100AD00020602068A96820F0F00008432060287892
:100AE000C0072DD0304968680839012812D0022883
:100AF00013D0032811D00968890700292DDA21684D
:100B000021F0030101432160FFF7E2FE814641F23B
:100B1000883A0EE009688903EFE709688901ECE784
:100B2000FFF7D6FEA0EB0901514502D90320BDE82D
:100B3000F0872068696800F00C00B0EB810FEFD1FE
:100B4000D8F80010404601F00701B14207D90770FC
:100B5000006800F00700B04201D00120E7E72878E4
:100B6000400705D52068E96820F4E050084320607C
:100B70002878000706D52068296920F4604040EAFB
:100B8000C100206000F058F82168084AC1F3031141
:100B9000515CC8400649086006480068FFF7C0FE7F
:100BA0000020C4E7003C02400838024040650008CD
:100BB000A40000209C0000200F2202600C4A136851
:100BC00003F003034360136803F0F00383601368CA
:100BD00003F4E053C36012684FF4E05303EAD20217
:100BE00002610448006800F00700086070470000D8
:100BF00008380240003C0240044805490068096882
:100C0000044AC1F38221515CC8407047A40000200F
:100C10000838024050650008044805490068096822
:100C2000044AC1F34231515CC8407047A40000201F
:100C30000838024050650008154810B5006810F0EB
:100C40000C02144813D01449042A0FD0082A0ED1DC
:100C50000F4C241F2268236802F03F025B0207D575
:100C60002068C0F38810A0FB010106E0084610BD13
:100C70002168C1F38811A1FB00010023FFF700FBED
:100C80002168C1F30141491C4900B0FBF1F010BDDE
:100C9000083802400024F40040787D012DE9F84F27
:100CA00004006ED02078DFF84C93C007A9F104054A
:100CB0004AD009F104000168C1F38101012908D07B
:100CC0000068C0F3810002280AD1D9F80000400270
:100CD00006D52868800337D560680028E1D033E066
:100CE0006068B0F5803F10D0B0F5A02F286810D014
:100CF00020F480302860286820F480202860606814
:100D0000A8B1FFF7E5FD06460DE0286840F4803005
:100D1000F4E740F480202860F7E700BFFFF7D8FD34
:100D2000801B642873D828688003F7D50CE0FFF790
:100D3000CFFD064605E000BFFFF7CAFD801B642813
:100D4000F0D828688003F7D42078DFF8AC828007D9
:100D50004FF0000A3ED5A748001D016811F00C0FA6
:100D600008D00068C0F3810002280BD1D9F8000038
:100D7000400207D42868800716D5E068012800D112
:100D800012E033E1E068B8B10120C8F80000FFF7D5
:100D90009FFD064605E000BFFFF79AFD801B022875
:100DA000C0D828688007F7D52868216920F0F800A6
:100DB00040EAC10028600DE0C8F800A0FFF788FDF8
:100DC000064604E0FFF784FD801B02281FD8286830
:100DD0008007F7D42078000722D5864F87486169BD
:100DE000703771B101210160FFF772FD064604E022
:100DF000FFF76EFD801B022809D838688007F7D5F9
:100E00000EE0C0F800A0FFF763FD064605E082E0B3
:100E1000FFF75EFD801B02287DD838688007F7D475
:100E20002078400768D5DFF8CCB100270BF13C0BE8
:100E3000DBF80000C0000BD4DBF8001041F080515B
:100E4000CBF80010DBF80000012700F08050009084
:100E50006B4E3068C00510D4306840F4807030604C
:100E6000FFF736FD009005E0FFF732FD0099401ACC
:100E7000022850D83068C005F6D55E4EA0686C36A2
:100E800001280FD00528306810D020F00100306014
:100E9000306820F004003060A068B8B1FFF718FD9A
:100EA00000900FE0306840F00100F4E740F00400EB
:100EB0003060F7E7FFF70CFD0099411A41F28830E6
:100EC000814266D830688007F4D50EE0FFF700FD58
:100ED000009007E0FFF7FCFC0099411A41F28830CE
:100EE000814256D830688007F4D42FB1DBF8001067
:100EF00021F08051CBF80010A069C8B33D49091D0D
:100F00000968C1F3810102294AD00228504607D05E
:100F1000C8F8600000E03CE0FFF7DAFC04463BE084
:100F20004746C8F86000FFF7D3FC064605E000BF5F
:100F3000FFF7CEFC801B02282BD828688001F7D44D
:100F4000D4E907010843A16A2E4A490802EB01418E
:100F5000626A41EA8211084394F82C1040EA016168
:100F6000C9F8001001203866FFF7B2FC044606E01D
:100F70003EE000BFFFF7ACFC001B022809D8286840
:100F80008001F7D534E000BFFFF7A2FC001B022868
:100F900002D90320BDE8F88F28688001F4D427E047
:100FA0000128F7D0D9F80000E26900F480019142ED
:100FB0001CD1226A00F03F01914217D147F6C0715F
:100FC000626A0140B1EB821F10D1A26A4FF0FF3379
:100FD00000F4403103EB5202B1EB024F06D194F81A
:100FE0002C1000F07060B0EB016F01D00120D1E750
:100FF0000020CFE70438024000004742800E4742FD
:10100000007000400000FFFF7047000038B5016825
:1010100004464A688868C043430606D5C30704D11E
:10102000D3435B0601D4216C05E0830708D4D34386
:101030001B0605D4616C01B02046BDE8304008476E
:10104000830603D5430601D5C30551D4D3439B067C
:101050004ED443060AD494F85130032B49D0636D23
:1010600043F004036365CB688B680093830609D45F
:10107000636D43F0010363658B6800930B6823F095
:1010800040030B60C00506D4606D40F00800606549
:10109000206880680090606D002829D02068416831
:1010A00021F0E0014160012084F85100900701D453
:1010B000D00722D02068416821F003014160114D22
:1010C000E06C40B10565E06CFFF7D3FA18B1606DD4
:1010D00040F040006065A06C002809D00565A06C58
:1010E000FFF7C7FA002803D0606D40F0400060654C
:1010F00038BDC8688868009038BD2046FFF784FF77
:1011000038BD00003524000870B5040009D0606ABD
:10111000002540B125616561A56294F8510040B198
:101120000CE0012070BD6068B0F5827FF4D0E5610D
:10113000F2E784F85050204600F044F8022084F88A
:1011400051002068016821F040010160A0882189D8
:1011500000F4827001F404410843A18901F40061A4
:101160000843217C01F002010843217D01F00101C7
:101170000843218B01F400710843217F01F03801FD
:10118000084394F8201001F080010843218D01F4F8
:101190000051084321680860A069042101EA104059
:1011A00094F8241001F01001084321684860206879
:1011B000C16921F40061C1616565012084F85100B5
:1011C000002070BD10B586B0044614216846FFF7B4
:1011D000A1F817492068884228D1164800210268E2
:1011E00042F480520260006800F48050059011487B
:1011F0001438026842F001020260006800F0010049
:101200000590E02000900220CDE901010320039029
:101210000520049069460848FFF750FA002205218E
:101220002320FFF7FDFB2320FFF7ECFB06B010BDEA
:101230000030014044380240000002402DE9FF4FD9
:1012400081B01D46934604464FF001090E9EFFF7FC
:101250003FFB074694F851006168012806D0B1F5BC
:10126000827F3CD1A168C9BB042838D102980028EC
:1012700071D0BBF1000FFBD0002DF9D094F85000D5
:1012800001282CD04FF0010A84F850A094F85100A6
:10129000042802D0052084F851004FF00008C4F85B
:1012A0005480C4F838B0E587A58702992163E586A4
:1012B000A586C4F84080C4F84480206801684906C7
:1012C00003D4016841F040010160E068B0F5006FAF
:1012D000606808D0F0B3012D49D081E0FFE702201B
:1012E00005B0BDE8F08F08B1012D39D1206B216820
:1012F0000088C860206B801C2063E08E401EE08662
:101300002EE02068816889070FD5E18E69B1B9F1B7
:10131000010F0AD1216B0988C160206B801C2063FA
:10132000E08E401EE0864FF0000920688168C90702
:101330000CD0E18F51B1C068A16B0880A06B801CFC
:10134000A063E08F401EE0874FF00109FFF7C0FA6D
:10135000C01B01E00BE067E0B04201D3701C50D12C
:10136000E08E0028CDD1E08F0028CAD13EE0206B6E
:10137000216800780873206B401C2063E08E401EBB
:10138000E0862DE02068816889070FD5E18E69B17C
:10139000B9F1010F0AD1216B09780173206B401C50
:1013A0002063E08E401EE0864FF0000920688168CF
:1013B000C9070CD0E18F51B1C068A16B0870A06B58
:1013C000401CA063E08F401EE0874FF00109FFF74B
:1013D0007FFAC01BB04202D3701C01D011E086B16D
:1013E000E08E0028CED1E08F0028CBD13A4631469E
:1013F000204601F027F850B12020606584F8508025
:1014000012E084F851A084F85080032068E7A068B7
:1014100018B92068C1688068009084F851A084F8E9
:101420005080606D0028F1D0012059E77047704767
:1014300070B590F83C20012A32D0012480F83C405D
:10144000022280F83D2003685A689D6822F07006E9
:101450000A6832435A60134B02689A4214D0B2F1C0
:10146000804F11D0104B9A420ED0104B9A420BD0A5
:101470000F4B9A4208D00F4B9A4205D00E4B9A421E
:1014800002D00E4B9A4204D1496825F080031943DB
:10149000916080F83D40002180F83C10084670BD06
:1014A000022070BD00000140000400400008004020
:1014B000000C0040000401400040014000180040C2
:1014C00010B5040003D094F83D0010B107E00120EE
:1014D00010BD002084F83C00204600F01FF80220D8
:1014E00084F83D00211D206801F096F9012084F860
:1014F000460084F83E0084F83F0084F8400084F8F9
:10150000410084F8420084F8430084F8440084F8E1
:10151000450084F83D00002010BD000008B50068BB
:101520000B49884212D10B48016841F00201016069
:101530000068002200F00200009006211D20FFF745
:101540006FFABDE808401D20FFF75CBA08BD000037
:10155000000400404038024090F83D10012901D0BD
:1015600001207047022180F83D100168CA6842F0EE
:101570000102CA6000681149884214D0B0F1804F5E
:1015800011D00F4988420ED00E4988420BD00E4927
:10159000884208D00D49884205D00D49884202D0C2
:1015A0000C49884204D1816801F00701062903D063
:1015B000016841F001010160002070470000014016
:1015C0000004004000080040000C004000040140FE
:1015D000004001400018004070B5044690F83C00FF
:1015E0000025012817D0012684F83C60022084F8E9
:1015F0003D002068826822F0770222F47F428260F8
:101600000868502838D00DDC20284FD005DC90B376
:10161000102811D14AE0022070BD302846D0402861
:101620000AD13BE060282FD070280DD0B0F5805F44
:1016300003D0B0F5005F12D0012584F83D60002092
:1016400084F83C00284670BDCB68D1E901212068B0
:1016500001F04EF92068816841F0770109E0CB681C
:10166000D1E90121206801F043F92068816841F443
:1016700080418160E1E719E0CA684968206801F0AB
:1016800049F95021206806E0CA684968206801F0DD
:1016900052F96021206801F035F9CEE7CA6849683F
:1016A000206801F037F940212068F4E722680146FC
:1016B0001046F0E770472DE9F04104460068C6681F
:1016C00005694FF00007A90713D5B10711D5F91E19
:1016D000016101202077206880698007204602D0C0
:1016E000FFF7E8FF04E000F07EF8204600F07CF809
:1016F0002777680716D5700714D521686FF00400A6
:101700000861022020772068806910F4407F20461D
:1017100002D0FFF7CFFF04E000F065F8204600F0AC
:1017200063F82777280715D5300713D521686FF0A0
:1017300008000861042020772068C06980072046DF
:1017400002D0FFF7B7FF04E000F04DF8204600F0AC
:101750004BF82777E80616D5F00614D521686FF008
:1017600010000861082020772068C06910F4407FCD
:10177000204602D0FFF79EFF04E000F034F8204638
:1017800000F032F82777E80708D0F00706D0216884
:101790006FF001000861204600F028F8280608D5FF
:1017A000300606D521686FF0800008612046FFF7FB
:1017B0003DFE680608D5700606D521686FF040002A
:1017C0000861204600F01CF8A8060AD5B00608D526
:1017D00021686FF0200008612046BDE8F041FFF766
:1017E00026BEBDE8F08170477047000000680349DD
:1017F000884201D1FFF772B870470000000800402E
:101800007047704770470000F8B5016804460868E3
:10181000CA684B6910F00F0F4FF0000559D003F064
:10182000010602F49077374365D0C10705D0D10592
:1018300003D5616C41F001016164410705D5D90709
:1018400003D0616C41F002016164810705D5D907BD
:1018500003D0616C41F004016164010707D502F017
:101860002001314303D0616C41F008016164616C77
:1018700000293AD0800604D5900602D5204601F012
:101880002FFB20684069616CC0F38010090700D409
:1018900060B3204601F0FDFA20684069400621D57A
:1018A0002068143050E8001F21F0400140E8001289
:1018B000002AF5D1E06BA8B16E490165E06BFEF737
:1018C000D8FE002811D0E06B016D01B0BDE8F040FA
:1018D000084783060FD593060DD52046BDE8F8408E
:1018E00001F0FEBA2046FFF78DFFF8BD2046FFF756
:1018F00089FF6564F8BD266B2023012E7DD1C606C5
:101900007BD5D60679D508684868009048694FF0BD
:101910000206400641D5E16B086840680004000CEF
:10192000E8D0A28D8242E5D9E085C869B0F5807F14
:101930002DD020680C3050E8001F21F4807140E861
:101940000012002AF5D12068143050E8001F21F061
:10195000010140E80012002AF5D12068143050E857
:10196000001F21F0400140E80012002AF5D184F860
:101970004230256320680C3050E8001F21F0100130
:1019800040E80012002AF5D1E06BFEF729FE6663FD
:10199000A08DE18D401A81B22AE0A08DE18D401A20
:1019A00081B2E08D0028A5D00029A3D022680C3296
:1019B00052E8000F20F4907042E80007002FF5D1A4
:1019C0002068143050E8002F22F0010240E8002780
:1019D000002FF5D184F84230256320680C3050E8A0
:1019E000002F22F0100240E80023002BF5D166639F
:1019F0002046FFF706FFF8BDFFE705062BD51506C5
:101A000029D594F841002128F5D1A068B0F5805F70
:101A100001D12069B0B1206A411C2162216800789F
:101A20004860E08C401E0004000CE084E3D1206894
:101A3000C16821F08001C1602068C16841F04001A7
:101A4000C160D8E7206A0088C0F308004860206AB7
:101A5000801C2062E5E74006CDD55006CBD5CA688C
:101A6000204622F04002CA6084F8413000F062F95A
:101A7000C1E70000832E000870B5040004D094F87C
:101A80004100002510B106E0012070BD84F84050EF
:101A9000204600F023F8242084F841002068C16823
:101AA00021F40051C160204601F07CFA20680169F0
:101AB00021F4904101612068416921F02A014161CE
:101AC0002068C16841F40051C1606564202084F839
:101AD000410084F842006563002070BD70B586B097
:101AE000044614216846FEF715FC284E22680021A2
:101AF0002748022303240725B24225D1244A143261
:101B0000166846F010061660126802F01002059280
:101B1000026842F001020260006802AA00F00100BF
:101B2000059082E832006002CDE900036946194859
:101B3000FEF7C4FD002205212520FEF771FF2520B8
:101B4000FEF760FF06B070BD134EB242FAD1104AE4
:101B50001032166846F480261660126802F480225D
:101B60000592026842F002020260006802AA00F0D8
:101B70000200059082E832004FF44060CDE9000396
:101B800069460648FEF79AFDDCE7000000100140B8
:101B9000303802400000024000480040000402408B
:101BA00090F84230202B01D00220704721B11AB1A9
:101BB0000023036301F07CBA012070472DE9F04156
:101BC000064600682C492D4C0025884211D120463C
:101BD000A71C2B4A00783978FF29115433D0401CB8
:101BE0002070264926483D700122891CFC30FFF7F1
:101BF000D7FF2449306888423CD16078401EC1B28A
:101C00001F48C830FEF704FCC1B21D4F6078C837CA
:101C10003A181A4E12F8012CF61C91421CD1401EA3
:101C2000C1B23846FEF7F4FB3178B1EB102F13D177
:101C3000607800231A46395413483946006804F086
:101C400029F965700DE0114800231A460C49006817
:101C500004F020F92570C4E7607831783954401CCD
:101C600060703570BDE8F04104490122C91C084884
:101C7000FFF796BFBDE8F0810010014094000020FE
:101C800014040020004800407C0000207800002060
:101C9000580500202DE9F843044690F84100984685
:101CA00016460D46202802D00220BDE8F88385B1F3
:101CB0007EB100206064212084F84100FEF708FE18
:101CC000A6848146E684A0682027B0F5805F02D014
:101CD00003E00120E9E7206910B12E4600250EE05F
:101CE00000260CE08021204601F0FDF9A8B9C6B11C
:101CF00016F8010B21684860E08C401EE084E08CFF
:101D00004B464FF00002CDF800800028EAD14FF09A
:101D10004001204601F0E7F940B184F8417003200A
:101D2000C3E735F8020BC0F30800E3E784F841701D
:101D30000020BAE77047FEE70D4810B50B49016077
:101D40001021416000218160C16001614161017623
:101D500041768176C17601774177FEF776FB0028E0
:101D600003D0BDE81040FEF76EBB10BD0068004018
:101D70004C03002010B5044A0021044801F0AEFCD9
:101D80000349086010BD00001C65000839270008E1
:101D9000900000202DE9F04F87B014216846FEF72F
:101DA000B9FA73480025016841F01001016001682B
:101DB00001F010010591016841F004010160016822
:101DC00001F004010591016841F020010160016802
:101DD00001F020010591016841F080010160016876
:101DE00001F080010591016841F001010160016885
:101DF00001F001010591016841F0400101600168B5
:101E000001F040010591016841F0020101600168A3
:101E100001F002010591016841F0080101600068CC
:101E2000DFF8509100F00800059000227C21484620
:101E3000FEF749FDDFF840B14FF460470022394614
:101E40005846FEF740FD002248F203014B48FEF7DA
:101E50003AFD4FF47078012241464848FEF733FDC1
:101E6000012207215846FEF72EFDDFF814A10122BA
:101E700007215046FEF727FD002201214148FEF7C9
:101E800022FD7C200124022603958DE8510069463D
:101E90004846FEF713FC00970395CDE901466946D5
:101EA0005846FEF70BFC032700970395CDE9014642
:101EB00069463248FEF702FC1C20CDE90005694660
:101EC00002942E48FEF7FAFBCDE90084CDE90247E3
:101ED00069462A48FEF7F2FB4FF00708CDE9008477
:101EE000CDE9024769465846FEF7E8FBCDE9008494
:101EF000CDE9024769465046FEF7E0FBE0038DE876
:101F0000B10069461D48FEF7D9FB01AA009482E89A
:101F1000B00069461B48FEF7D1FB2003CDE9000560
:101F2000694602945846FEF7C9FBE7208DE8610038
:101F3000154C69462046FEF7C1FB1820CDE9000587
:101F4000694620460295FEF7B9FB4FF43E408DE806
:101F5000610069460B48FEF7B1FBF8208DE861008F
:101F600069460A48FEF7AAFB07B0BDE8F08F0000FB
:101F700030380240001002400008024000140240C5
:101F80000000024000180240000C02400004024021
:101F9000104810B50E4901604FF482714160002174
:101FA0008160C1604FF400720161C0E905123822FE
:101FB000C0E90721416281620A21C162FFF7A4F8EA
:101FC000002803D0BDE81040FEF73DBA10BD000068
:101FD000003001407403002010B586B0002417487B
:101FE00000940194029403940494134905940160AD
:101FF0000921C0E9011441F61F41C0E903148461BD
:10200000FFF75EFA08B1FEF71EFA4FF48050009019
:1020100069460A48FFF7E0FA08B1FEF714FA04949B
:1020200004A906480594FFF703FA002801D0FEF73B
:102030000AFA06B010BD000000040040CC030020E6
:102040000C4810B50A4901604FF4E13141600021AC
:1020500081600C22C160C0E904128161C161FFF797
:102060000BFD002803D0BDE81040FEF7ECB910BD11
:1020700000100140100500200C4810B50A4901600D
:102080004FF461414160002181600C22C160C0E9D0
:1020900004128161C161FFF7EFFC002803D0BDE8A5
:1020A0001040FEF7D0B910BD004800405805002090
:1020B000FEE7FEE77047000010B5044686B0002139
:1020C000012000F04BFC4FF4FA7000908DF80C40AA
:1020D000052301AA03A90D48FFF7B0F868B14FF036
:1020E0005A3400BF0A499DF80400087001210846CF
:1020F00000F034FC06B0204610BDDDF8050000BA43
:1021000020F0FF049DF808000443EBE7740300206F
:102110008E0000203EB50C4605460021012000F04F
:102120001DFC8DF80450200E8DF80500200C8DF854
:102130000600200A8DF807004FF4FA7001AA0090FB
:102140008DF80840052311460648FFF777F818B9BF
:102150000121084600F002FC0121084600F0FEFBC8
:102160003EBD00007403002010B5044686B0002177
:10217000022000F0F3FB4FF4FA7000908DF80C4051
:10218000052301AA03A90D48FFF758F868B14FF0DD
:102190005A3400BF0A499DF804000870012102204A
:1021A00000F0DCFB06B0204610BDDDF8050000BAEB
:1021B00020F0FF049DF808000443EBE774030020BF
:1021C0008E0000203EB50C4605460021022000F09E
:1021D000C5FB8DF80450200E8DF80500200C8DF8FD
:1021E0000600200A8DF807004FF4FA7001AA00904B
:1021F0008DF80840052311460648FFF71FF818B967
:102200000121022000F0AAFB0121022000F0A6FB20
:102210003EBD00007403002010B5044686B00021C6
:10222000032000F09BFB4FF4FA7000908DF80C40F7
:10223000052301AA03A90D48FFF700F868B14FF084
:102240005A3400BF0A499DF8040008700121032098
:1022500000F084FB06B0204610BDDDF8050000BA92
:1022600020F0FF049DF808000443EBE7740300200E
:102270008E0000203EB50C4605460021032000F0EC
:102280006DFB8DF80450200E8DF80500200C8DF8A4
:102290000600200A8DF807004FF4FA7001AA00909A
:1022A0008DF80840052311460648FEF7C7FF18B908
:1022B0000121032000F052FB0121032000F04EFB1E
:1022C0003EBD00007403002010B5044686B0002116
:1022D000042000F043FB4FF4FA7000908DF80C409E
:1022E000052301AA03A90D48FEF7A8FF68B14FF026
:1022F0005A3400BF0A499DF80400087001210420E7
:1023000000F02CFB06B0204610BDDDF8050000BA39
:1023100020F0FF049DF808000443EBE7740300205D
:102320008E0000203EB50C4605460021042000F03A
:1023300015FB8DF80450200E8DF80500200C8DF84B
:102340000600200A8DF807004FF4FA7001AA0090E9
:102350008DF80840052311460648FEF76FFF18B9AF
:102360000121042000F0FAFA0121042000F0F6FA1D
:102370003EBD00007403002010B5044686B0002165
:10238000052000F0EBFA4FF4FA7000908DF80C4045
:10239000052301AA03A90D48FEF750FF68B14FF0CD
:1023A0005A3400BF0A499DF8040008700121052035
:1023B00000F0D4FA06B0204610BDDDF8050000BAE2
:1023C00020F0FF049DF808000443EBE774030020AD
:1023D0008E0000203EB50C4605460021052000F089
:1023E000BDFA8DF80450200E8DF80500200C8DF8F4
:1023F0000600200A8DF807004FF4FA7001AA009039
:102400008DF80840052311460648FEF717FF18B956
:102410000121052000F0A2FA0121052000F09EFA1A
:102420003EBD0000740300200148FEF7EFBD000030
:102430007403002010B5806B0021C187C186FEF7B0
:10244000E3FD10BDF8B515460E460B460092044656
:102450000122022100F0B2F8A0B913481349006824
:10246000B0FBF1F04FF47A71484300906068B0F52A
:10247000827F0DD13346002280212046009500F056
:102480009DF870B1606D40F0200060650320F8BDDC
:10249000009830B1401E009020688068C04300065C
:1024A000F6D50020F8BD0000A400002000366E0123
:1024B000F0B51C4887B00026016841F001010160B9
:1024C000016801F001010591016841F0040101601A
:1024D0000068012400F004000590A002CDE900048A
:1024E000114F0225694603953846FEF7E7F84FF489
:1024F0000140CDE90004694603950C48FEF7DEF87B
:10250000E002CDE9000669463846CDE90245FEF70E
:10251000D5F8012000F04AF8002000F03FF807B09D
:10252000F0BD0000303802400008024000000240C8
:102530004FF400610148FEF7B9B9000000080240FD
:10254000002000F033B8012000F030B82DE9F04150
:102550000024064625464FF0800800BF28FA05F7FC
:1025600007EA060000F012F8012000F017F8FFF764
:10257000DFFF012800D13C43002000F00FF86D1C64
:10258000EDB2082DEAD32046BDE8F08102464FF4B3
:1025900000410148FEF797B90000024002464FF49F
:1025A00080610148FEF78FB90008024002464FF4EF
:1025B00080710148FEF787B9000002402DE9F84319
:1025C0001E46914688460446089DFEF781F9401B49
:1025D000351AFEF77DF9074625480068C0F3CB3071
:1025E000684338E0701C37D0FEF772F9C01BA84270
:1025F00003D215B1009860B32CE02068416821F047
:10260000E00141606068B0F5827F0BD1A068B0F551
:10261000004F02D0B0F5806F04D12068016821F02E
:1026200040010160A06AB0F5005F09D1206801682F
:1026300021F4005101602068016841F400510160FB
:10264000012084F85100002084F850000320BDE8E8
:10265000F8830025401E00902068816838EA010058
:1026600004D000214945BDD10020F0E70121F9E760
:10267000A40000202DE9F0410E4607460024164D27
:102680004FF47A7809E0385D2870434601221249F8
:102690001248FFF7FFFA641CE4B2B442F3D33146A8
:1026A0003846FDF7B5FEB85528704446434601222A
:1026B00009490A48FFF7EEFA31463846FDF7A8FE09
:1026C000000AB85528702346BDE8F04101220249AE
:1026D0000248FFF7DFBA0000000000205805002084
:1026E00010B50621134801F0D9FF0A20FDF7D4FFE9
:1026F00010480621801D01F0D1FF0A20FDF7CCFF14
:102700000C4806210C3001F0C9FF0A20FDF7C4FF78
:1027100008480621123001F0C1FF0A20FDF7BCFF76
:10272000044806211830FFF7A5FFBDE810400A2035
:10273000FDF7B2BF0F000020012000F093FFFBE780
:1027400010B54FF0E020006903F032FD012803D0FE
:10275000BDE8104003F040BA10BD000030B593B0A2
:1027600030216846FDF7D6FD14210CA8FDF7D2FDF7
:102770001D480025016841F080510160006800F0AB
:10278000805011901948016841F48041016000684F
:10279000022400F480401190012003901020049046
:1027A000009406940820CDE90750A820CDE909043B
:1027B00004200B906846FEF771FA08B172B6FEE786
:1027C0000CA90F2081E831004FF4A0500F904FF476
:1027D0008050109005210CA8FEF754F9002801D074
:1027E00072B6FEE713B030BD4038024000700040C2
:1027F0000248016841F470010160704788ED00E013
:102800000148FEF758BF0000CC0300200148FEF746
:1028100052BF0000A0050020F0B50268294C2A4DE7
:102820002A4E2B4F2B4B4FF0804CA04209D06045D5
:1028300007D0A84205D0B04203D0B84201D0984298
:1028400004D122F0700E4A6842EA0E02A0421BD068
:10285000604519D0A84217D0B04215D0B84213D065
:10286000984211D01C4DA8420ED01C4DA8420BD04E
:102870001B4DA84208D01B4DA84205D01A4DA842B6
:1028800002D01A4DA84203D122F44075CA682A43E7
:102890004D6922F080022A4302608A68C2620A6897
:1028A0008262A04201D0984201D1096901630121ED
:1028B00041610169C90703D0016921F0010101618A
:1028C000F0BD00000000014000040040000800408E
:1028D000000C004000040140004001400044014061
:1028E0000048014000180040001C0040002000404B
:1028F00010B5846842EA032224F47F440A43224349
:10290000826010BD826822F070020A4342F0070123
:102910008160704710B5036A046A24F00104046200
:10292000846924F0F00444EA021423F00A020A4302
:102930008461026210BD10B5036A046A24F01004B9
:102940000462846923F0A00324F4704444EA023250
:1029500043EA01118261016210BD0000024630B4F9
:102960000F48104B062A18D2DFE802F01703060AB8
:102970000E110A4680210DE00A464FF4007109E06D
:102980000A460221084805E00A46012101E00A46FC
:102990000221184630BCFDF796BF30BC70470000DE
:1029A00000140240000002400008024010B5044636
:1029B0003149EC20FFF7AEFB3049ED20FFF7AAFBD1
:1029C0002F498A20FFF7A6FB4FF4E0619020FFF724
:1029D000A1FB0A219120FFF79DFB04218020FFF736
:1029E00099FB4FF44021F020FFF794FB4FF4FA716C
:1029F0009320FFF78FFB642004FB00F1A420FFF776
:102A000089FB4FF4FA7004FB00F1A520FFF782FB6D
:102A1000322004FB00F1A620FFF77CFB43F2C82024
:102A200004FB00F1A720FFF775FB4FF42F7004FBA8
:102A300000F1A820FFF76EFB8C2004FB00F1AA2018
:102A4000FFF768FB0A21AB20FFF764FB0021A02001
:102A5000FFF760FB00216D20FFF75CFB00211320D6
:102A6000FFF758FB07497020FFF754FBBDE8104003
:102A700005491020FFF74EBBC300010013E300011E
:102A800010071800C80104001FFF040010B501461C
:102A9000AD20FFF73FFB0021BDE81040A120FFF76C
:102AA00039BB000010B504463149EC20FFF78AFB22
:102AB0003049ED20FFF786FB2F498A20FFF782FB84
:102AC0004FF4E0619020FFF77DFB0A219120FFF792
:102AD00079FB04218020FFF775FB4FF44021F020A3
:102AE000FFF770FB4FF4FA719320FFF76BFB642044
:102AF00004FB00F1A420FFF765FB4FF4FA7004FB20
:102B000000F1A520FFF75EFB322004FB00F1A620B8
:102B1000FFF758FB43F2C82004FB00F1A720FFF7A2
:102B200051FB4FF42F7004FB00F1A820FFF74AFB84
:102B30008C2004FB00F1AA20FFF744FB0A21AB2004
:102B4000FFF740FB0021A020FFF73CFB00216D2098
:102B5000FFF738FB00211320FFF734FB07497020F3
:102B6000FFF730FBBDE8104005491020FFF72ABBF6
:102B7000C300010013E3000110071800C80104009E
:102B80001FFF040010B50146AD20FFF71BFB00211D
:102B9000BDE81040A120FFF715BB000010B50446AA
:102BA0003149EC20FFF766FB3049ED20FFF762FB6F
:102BB0002F498A20FFF75EFB4FF4E0619020FFF77A
:102BC00059FB0A219120FFF755FB04218020FFF7D4
:102BD00051FB4FF44021F020FFF74CFB4FF4FA710A
:102BE0009320FFF747FB642004FB00F1A420FFF7CC
:102BF00041FB4FF4FA7004FB00F1A520FFF73AFB0C
:102C0000322004FB00F1A620FFF734FB43F2C8207A
:102C100004FB00F1A720FFF72DFB4FF42F7004FBFE
:102C200000F1A820FFF726FB8C2004FB00F1AA206E
:102C3000FFF720FB0A21AB20FFF71CFB0021A0209F
:102C4000FFF718FB00216D20FFF714FB0021132074
:102C5000FFF710FB07497020FFF70CFBBDE81040A1
:102C600005491020FFF706BBC300010013E3000174
:102C700010071800C80104001FFF040010B501462A
:102C8000AD20FFF7F7FA0021BDE81040A120FFF7C3
:102C9000F1BA000010B504463149EC20FFF742FBC1
:102CA0003049ED20FFF73EFB2F498A20FFF73AFB22
:102CB0004FF4E0619020FFF735FB0A219120FFF7E8
:102CC00031FB04218020FFF72DFB4FF44021F02041
:102CD000FFF728FB4FF4FA719320FFF723FB6420E2
:102CE00004FB00F1A420FFF71DFB4FF4FA7004FB76
:102CF00000F1A520FFF716FB322004FB00F1A6200F
:102D0000FFF710FB43F2C82004FB00F1A720FFF7F8
:102D100009FB4FF42F7004FB00F1A820FFF702FB22
:102D20008C2004FB00F1AA20FFF7FCFA0A21AB205B
:102D3000FFF7F8FA0021A020FFF7F4FA00216D2038
:102D4000FFF7F0FA00211320FFF7ECFA0749702093
:102D5000FFF7E8FABDE8104005491020FFF7E2BA96
:102D6000C300010013E3000110071800C8010400AC
:102D70001FFF040010B50146AD20FFF7D3FA002174
:102D8000BDE81040A120FFF7CDBA000010B5044601
:102D90003149EC20FFF71EFB3049ED20FFF71AFB0D
:102DA0002F498A20FFF716FB4FF4E0619020FFF7D0
:102DB00011FB0A219120FFF70DFB04218020FFF772
:102DC00009FB4FF44021F020FFF704FB4FF4FA71A8
:102DD0009320FFF7FFFA642004FB00F1A420FFF723
:102DE000F9FA4FF4FA7004FB00F1A520FFF7F2FAAC
:102DF000322004FB00F1A620FFF7ECFA43F2C820D2
:102E000004FB00F1A720FFF7E5FA4FF42F7004FB55
:102E100000F1A820FFF7DEFA8C2004FB00F1AA20C5
:102E2000FFF7D8FA0A21AB20FFF7D4FA0021A0203F
:102E3000FFF7D0FA00216D20FFF7CCFA0021132014
:102E4000FFF7C8FA07497020FFF7C4FABDE8104041
:102E500005491020FFF7BEBAC300010013E30001CB
:102E600010071800C80104001FFF040010B5014638
:102E7000AD20FFF7AFFA0021BDE81040A120FFF719
:102E8000A9BA10B5806B0021C185C184FEF7BAFCD8
:102E900010BD01680C3151E8002F22F4907241E816
:102EA0000023002BF5D10168143151E8002F22F0E6
:102EB000010241E80023002BF5D1016B012909D162
:102EC00001680C3151E8002F22F0100241E8002384
:102ED000002BF5D1202180F84210002101637047BA
:102EE00008B590F84210222901D0022008BD82685E
:102EF0004FF480539A4201D1016921B1816A9A420B
:102F00001BD04AB10AE00268816A5268C2F3080223
:102F10000A80816A891C08E0026972B102685268FD
:102F200002F07F020A70816A491C8162C18D491ECC
:102F30000904090CC18503D01BE002685268F1E75F
:102F40000168CA6822F02002CA600168CA6822F4D7
:102F50008072CA6001684A6922F001024A61202138
:102F600080F8421000214163026B012A03D0FEF772
:102F700025FE002008BD016301680C3151E8002FD7
:102F800022F0100241E80023002BF5D101680A6805
:102F9000D20602D50A6849680091818DFEF731FC9E
:102FA000E7E7000070B5044600680169E26821F4B3
:102FB0004051114301612169A068E26908436169D8
:102FC000114308432168CA6849F20C639A430243DB
:102FD000CA6020684169A26921F4407111434161CE
:102FE00031492068884202D03049884202D1FDF739
:102FF00013FE01E0FDF700FEE269002319216425BC
:103000003226B2F5004F626828D0A0FB0101930F71
:103010009200FDF735F90146B0FBF5F06FF01802AC
:10302000504301EB800006EB0010B0FBF5F000F020
:10303000F002B1FBF5F002EB0012B1FBF5F06FF01E
:103040001803584301EB800006EB0010B0FBF5F0CD
:1030500000F00F0021681044886070BDA0FB0101E2
:1030600092185B41FDF70CF90146B0FBF5F0020147
:10307000B1FBF5F06FF01803584301EB800006EB4D
:10308000C000B0FBF5F000F0F80002EB4002B1FB2D
:10309000F5F0584301EB800006EBC000B0FBF5F003
:1030A00000F00700D6E700000010014000140140C6
:1030B00081628285C28500214164222180F842100C
:1030C000016921B10168CA6842F48072CA6001686E
:1030D0004A6942F001024A610068C16841F020017A
:1030E000C160002070472DE9F843984617460D4609
:1030F0000446089E24E0701C22D0FDF7E9FBA0EBFB
:103100000800B0421AD8CEB12068C168490717D567
:10311000802D15D0402D13D00168C94309070FD465
:1031200001680025406800902046FFF7B2FE0820A5
:10313000606484F840500120BDE8F8830320FBE779
:103140002068006835EA000004D00020B842D2D0E0
:103150000020F1E70120F9E70148FEF755BB000028
:1031600010050020FEE7FFF7A3B970B515460E461F
:10317000044600F071F8FFF7E3F90220FFF7E6F9E3
:10318000C4F30740FFF7E2F9C4F30720FFF7DEF9C5
:10319000E0B2FFF7DBF9002404E0305DFFF7D6F979
:1031A000641CA4B2AC42F8D3FFF7CDF9BDE870407F
:1031B00000F03CB870B515460E460446FFF7C0F95E
:1031C0000320FFF7C3F9C4F30740FFF7BFF9C4F3C7
:1031D0000720FFF7BBF9E0B2FFF7B8F9002404E0DD
:1031E000FF20FFF7B3F93055641CAC42F8D3BDE8BB
:1031F0007040FFF7A8B910B5044600F02DF8FFF7AE
:103200009FF92020FFF7A2F9C4F30740FFF79EF9CA
:10321000C4F30720FFF79AF9E0B2FFF797F9FFF739
:1032200092F9BDE8104000F001B8000010B5FFF7BA
:1032300087F90520FFF78AF9064C01E0641E04D0E7
:10324000FF20FFF783F9C007F8D1BDE81040FFF772
:103250007AB90000A086010010B5FFF771F90620C9
:10326000FFF774F9BDE81040FFF76DB90FB4054BD7
:1032700010B503A9044A029800F028F810BC5DF8C4
:1032800014FB000021340008280100200907090E62
:10329000002804DB00F1E02080F80014704700F003
:1032A0000F0000F1E02080F8141D704702E008C80C
:1032B000121F08C1002AFAD170477047002001E0B0
:1032C00001C1121F002AFBD1704700002DE9FF4FFA
:1032D00089B09B460446002506E025280BD05A46B7
:1032E0000B999047641C6D1C20780028F5D10DB017
:1032F0002846BDE8F08F0027B8460122474900E084
:10330000074314F8013F203B02FA03F00842F7D1CB
:1033100020782E2819D114F8010F47F004072A2825
:103320000ED06FF02F022078A0F1300109290CD8BF
:1033300008EB880102EB410100EB0108641CF2E795
:103340000A98641C50F8048B0A9020780028CED08C
:10335000642808D0692806D075281ED05A460B99D3
:1033600090476D1C58E00A994FF00A0901C90A916B
:10337000002802DA40422D2102E0390504D52B2134
:103380008DF82010012103E0F90704D02021F7E790
:103390008A4608AE0DE00021FAE70A994FF00A09C3
:1033A00001C90A91F7E74946FCF7BFFF303106F83B
:1033B000011D0028F7D1ADEB060000F120097807C8
:1033C00001D44FF00108C84502DDA8EB090000E078
:1033D00000208046002706E008A85A46C05D0B99E9
:1033E00090476D1C7F1C5745F6DB04E030205A46A1
:1033F0000B9990476D1CB8F10001A8F10108F5DCAC
:1034000005E016F8010B5A460B9990476D1CB9F16F
:103410000001A9F10109F4DC641C65E70928010039
:1034200013B54FF47A73012269460248FEF732FC65
:1034300000981CBD10050020094CFA2002F098F9F4
:10344000E17808A0FFF712FFFA2002F091F9E17885
:1034500004A0FFF70BFF002002F0B0F9EDE7000039
:1034600030000020706167655F76616C3D2564FF08
:10347000FFFF0000024630B42248234B234C811446
:10348000152A3BD2DFE802F03A0B0D0F1216181A7C
:103490001C141F222426282A2C2E32353800022103
:1034A00021E040211FE04FF4806101E04FF4005122
:1034B000184618E0102107E0012114E0202112E055
:1034C0004FF40061F4E7202120460CE010480AE0A8
:1034D000102108E0802106E00821F5E74021F3E70C
:1034E000042100E0082130BCFDF7E0B94FF4007181
:1034F000DEE74FF40041DBE78021E5E730BC0A203E
:1035000070470000000C0240001802400004024016
:1035100000080240FDF7EAF9FFF720F9FEF73AFC50
:10352000FEF78EFDFEF758FDFEF706FCFEF7A4FD44
:10353000FEF72EFDFFF717FEFFF7D2F80121084630
:1035400000F058F80120FDF7A7F80121022000F053
:1035500051F80120FDF7A0F80121032000F04AF8FE
:103560000120FDF799F80121042000F043F8012023
:10357000FDF792F80121052000F03CF80120FDF74D
:103580008BF80A20FFF712FA0120FDF785F80A20D0
:10359000FFF788FA0120FDF77FF80A20FFF7FEFA0F
:1035A0000120FDF779F80A20FFF774FB0120FDF7F1
:1035B00073F80A20FFF7EAFB0120FDF76DF80122FE
:1035C00008490948FEF7ECFA012208490848FEF7C5
:1035D000E7FA00F055F8FEF7CDFB01F089F800F0AE
:1035E00061F8FEE7960000201005002097000020FB
:1035F00058050020024630B41748184B062A28D236
:10360000DFE802F027030911171E11B10022402143
:103610001AE00122FBE721B15FF000024FF4807154
:1036200012E00122FAE711B10022012104E0012297
:10363000FBE719B100220421184605E00122FAE750
:1036400029B100220648042130BCFDF73CB9012213
:10365000F8E730BC70470000001402400008024048
:103660000000024010B5EFF3058111B16FF00504C1
:1036700003E0002408B102F07BF8204610BD0000F2
:10368000EFF3058010B16FF0050070470448016842
:1036900011B14FF0FF3070470121016000207047E9
:1036A000F800002010B5EFF3058010B16FF00500B1
:1036B00010BD08480168012902D04FF0FF3010BD4D
:1036C000054A002182F8141D0221016002F03EF932
:1036D000002010BDF80000200BE000E02DE9FF41C4
:1036E0004FEA01034FF00005EFF30581039549BB55
:1036F00040B38027182100244AB3166806B1344627
:1037000096691EB13146761E382E02D21679F6071A
:1037100003D0002004B0BDE8F081566906B1B708B7
:10372000D2F808C0BCF1000F0DD0D5685C2D18D3BD
:1037300012693AB136B18DE806103A46214602F0D8
:103740000CFD03900DE0D6685EB912694AB903AA70
:10375000CDE90012BAB2214602F0D2FC012800D015
:1037600003950398D6E7000030B4024619481A4B77
:103770001A4C0B2A2CD2DFE802F02B06090C10158C
:10378000181B1E2125000A4608211EE00A4620219A
:103790001BE00A464FF4005102E00A464FF4004194
:1037A000184612E00A4602210EE00A4604210CE007
:1037B0000A46102109E00A46402106E00A464FF475
:1037C0008041EDE70A460121204630BCFDF77BB879
:1037D00030BC704700100240000802400014024054
:1037E0002DE9F041134C0F460546E6682068001DA0
:1037F00001F08AFE681C07D137B12168BDE8F041AD
:103800000D48091D01F0D0BE20683544B542456021
:10381000216805D2A06BBDE8F041091D01F0ACBEE6
:10382000606B091D01F0A8FEA06A854200D2A56266
:10383000BDE8F081A8000020D80A00202DE9F04161
:10384000054601F0BDFE2D4CA068401CA06020681C
:103850002B4F10B1606930B32BE02560A0680128C0
:1038600027D1002606EB860007EB800001F076FEEC
:10387000761C382EF6D3234801F070FE2148143010
:1038800001F06CFE1F48283001F068FE1D483C30F6
:1038900001F064FE1B48503001F060FE194860637F
:1038A0001430A06305E02068E96AC06A884200D845
:1038B0002560606A401C60626864E86A2169884229
:1038C00000D9206100EB800007EB8000291D01F08A
:1038D0006BFE01F095FE606900280CD02068E96A53
:1038E000C06A884207D208494FF080500860BFF391
:1038F0004F8FBFF36F8FBDE8F0810000A80000205C
:1039000028060020880A002004ED00E038B501F008
:1039100057FE104C2068C8B90F4801F01FFE0E4832
:10392000143001F01BFE0C48E060143020610A4B9B
:103930000020F03B009003F1500210210A2002F019
:1039400082F9206010B105A101F0DCFEBDE838402D
:1039500001F056BEE4000020DC0B0020546D7251D3
:103960000000000030B4026C0B46002A0BD0C16886
:103970001144C1608468A14201D30168C16030BCB8
:103980001846FCF7AEBC30BC70472DE9F041856BA2
:10399000174604460026026C82B1C7B1E068FCF706
:1039A000A0FCE168206C091AE1602268914202D211
:1039B000A168081AE060022F16D017E02068A8B9A5
:1039C000A06802F06DFC06460020A0600EE0606872
:1039D000FCF787FC216C606808446060A16888423D
:1039E00004D32068606001E005B16D1E6D1CA56305
:1039F0003046BDE8F08110B5044690F8590058B142
:103A000001280CD002280FD0502080F31188BFF37A
:103A10004F8FBFF36F8FFEE7206B01F005FE20464E
:103A2000BDE8104001F000BE10BD000010484FF48A
:103A30007051420706D0C01D0D4920F00700411A01
:103A4000C1F570510B4A00230144C2E90003083953
:103A5000183A21F0070111604B600B600B1AC0E9A6
:103A6000001393604FF000405360506170470000B6
:103A7000BC12002014010020144E154CA6F29C47E5
:103A80004FF08058DFF84C9012E000BF01F098FD35
:103A9000F068C568281D01F037FDA068401EA060D1
:103AA0006068401E606001F0ABFD2846FFF7A3FF91
:103AB00060680028EAD138680128F9D9C9F800807F
:103AC000BFF34F8FBFF36F8FF2E70000C40A0020EF
:103AD000A800002004ED00E070B51D46049C51B123
:103AE000C4F80020C4E90F010121204602F0DEF8ED
:103AF00084F84C5070BD2460F4E700002DE9F05FBD
:103B00008846DDE90B941546834691009A460A9E45
:103B1000A522206BFCF7F7FB6FF00301206B01EB94
:103B20008501084420F00707780707D0502080F36C
:103B30001188BFF34F8FBFF36F8FFEE70025B8F1F9
:103B4000000F0FD05FF00000221818F8001082F864
:103B5000341018F8001011B1401C1028F4D384F868
:103B6000435001E084F83450382E00D33726E66203
:103B7000C4E91365201D01F0FCFC04F1180001F0FC
:103B8000F8FC2461C6F138006462A061656584F8C0
:103B9000585052465946384600F074FA2060B9F140
:103BA000000F01D0C9F80040BDE8F09F30B51149C1
:103BB00000E011460A688242FBD34B685C188442DD
:103BC00003D1406818444860084643681C18944272
:103BD00009D1084C183C2468A24209D052681A4402
:103BE00042600A6812680260814200D0086030BDFD
:103BF0000460F9E71401002070B5002441600B4D0A
:103C00000061914206D8D11A8269914206D2011D03
:103C1000286907E09A4203D2994201D3012403E0C4
:103C2000011DE86801F0A8FC204670BDE4000020FA
:103C300010B5044601F0C4FCA06B28B15FF000048D
:103C400001F0DEFC204610BD0124F9E730B589B053
:103C50003C4D6EE00498002806DADDE90601059A7D
:103C600090470498002864DB069C606910B1201D11
:103C700001F04AFC03A800F0D7F8024604980A288D
:103C800057D2DFE800F00505052D334A05052D3331
:103C900094F8280040F0010084F828000599A069F4
:103CA000059B01442046FFF7A7FF68B3216A204621
:103CB000884794F8280040073BD5002000900598DD
:103CC000A169002342181946204602F0F3FBD8B937
:103CD000502080F31188BFF34F8FBFF36F8FFEE743
:103CE00014F8280F20F00100207022E094F828003A
:103CF00040F0010084F828000598A06128B18118DF
:103D000013462046FFF778FF13E0502080F3118818
:103D1000BFF34F8FBFF36F8FFEE794F82800810742
:103D200003D4204601F080FC03E020F0010084F879
:103D30002800002204A9286802F00CF9002889D183
:103D400009B030BDE40000202DE9FC410F460546D6
:103D500001F08EFE01A800F067F80446019818B142
:103D600002F016FBBDE8FC81254EAFB1306900685A
:103D7000D0B30027291B3A46306801F0D7FC02F087
:103D800007FB0028EED11F494FF080500860BFF3B9
:103D90004F8FBFF36F8FE5E7A542EBD802F0F8FA3B
:103DA000F0682746C068C468201D01F0ADFB94F898
:103DB0002800410719D5A0692B4641193A462046EB
:103DC000FFF71AFFA8B100200346014600902A46DB
:103DD000204602F06FFB60B9502080F31188BFF3DA
:103DE0004F8FBFF36F8FFEE707E020F0010084F8EC
:103DF0002800216A20468847B4E70127BAE7000077
:103E0000E400002004ED00E00648416B096829B198
:103E1000416BC968C9684968816270474FF0FF31DA
:103E2000FAE70000A800002070B5054602F0CEF9C0
:103E3000064E0446B068844203D200F009F801201F
:103E400000E0002028602046B46070BDE40000203F
:103E5000F8B5194D20E0C068C4680668201D01F05F
:103E600053FB216A2046884794F82800400713D561
:103E7000A0693044B04206D924616060211DE86821
:103E800001F07AFB08E0002003460146009032462C
:103E9000204602F00FFB38B1E86801680029DAD14A
:103EA0002969C5E90310F8BD502080F31188BFF3DC
:103EB0004F8FBFF36F8FFEE7E40000200848406893
:103EC000401C4FF0500080F3118804D0BFF34F8F97
:103ED000BFF36F8FFEE7BFF34F8FBFF36F8FFEE728
:103EE0001C010020002150B10A4B42699A420FD1B7
:103EF000806AA3F1280290420AD040B108E0502025
:103F000080F31188BFF34F8FBFF36F8FFEE701215E
:103F100008467047D80A0020074CE068016841B1A4
:103F2000C0680021D0F80000FFF70EFFFFF78EFEFB
:103F3000F3E701210020F7E7E40000202DE9F0413C
:103F4000044601F03DFB94F9455004F1240609E0D4
:103F5000606A48B1304602F0E3F908B101F07EFC36
:103F60006D1E6DB2002DF3DC4FF0FF3684F8456016
:103F700001F046FB01F024FB94F9445004F11007D2
:103F800009E0206948B1384602F0CAF908B101F0E9
:103F900065FC6D1E6DB2002DF3DC84F84460BDE855
:103FA000F04101F02DBB00002DE9F041054600274E
:103FB00001F05EFD324E306808B9FFF737FD7069D9
:103FC00005424ED1C5B3083568070ED005F007008D
:103FD000C0F108000544680707D0502080F311881D
:103FE000BFF34F8FBFF36F8FFEE72DB3706885422D
:103FF00037D82348183001460C6801E020460C46AB
:104000006168A94202D221680029F7D131688C4247
:1040100027D007682168016060680837411B1029B4
:104020000FD96019420708D0502080F31188BFF3E0
:104030004F8FBFF36F8FFEE713E041606560FFF7BE
:10404000B5FD61687068401A7060B268904200D235
:10405000B060706901430020C4E90001F068401CB1
:10406000F06002F095F9780707D0502080F31188AE
:10407000BFF34F8FBFF36F8FFEE73846BDE8F08187
:10408000FC00002010B5031F4FF080741C601B1F44
:1040900021F001011960191F044B0B6014390A60EB
:1040A000091F6FF0020244380A6010BDBD3E0008CF
:1040B000B54E4FF0FF373A46B449306D01F04AFF34
:1040C0000128F8D10020FFF796F8C822AF49002058
:1040D000FFF74BF8AD4C04F198056078A178227990
:1040E00000EB0120E178090401EB0261084428603B
:1040F000012001F03DFB607AA17A227B00EB0120D8
:10410000E17A090401EB02610844E860012001F052
:104110002FFB94F8510094F8521094F8542000EBBF
:10412000012094F85310090401EB0261084468610E
:10413000012001F01DFB607BA17B227C00EB0120B4
:10414000E17B090401EB026108442861607CA17CE9
:10415000227D00EB0120E17C090401EB02610844AF
:10416000A861012001F004FB012001F001FB607D4A
:10417000A17D227E00EB0120E17D090401EB0261BB
:104180000844E861012001F0F3FA94F8410094F842
:10419000421094F8442000EB012094F843100904E5
:1041A00001EB026108442862012001F0E1FA94F871
:1041B000450094F8461094F8482000EB012094F84C
:1041C0004710090401EB026108446862012001F014
:1041D000CFFA607EA17E227F00EB0120E17E090400
:1041E00001EB02610844A862012001F0C1FA607F7E
:1041F000A17F94F8202000EB0120E17F090401EB6E
:1042000002610844E862012001F0B2FA94F8550016
:1042100094F8561094F8582000EB012094F85710A9
:10422000090401EB026108442863012001F0A0FAAF
:1042300094F8590094F85A1094F85C2000EB01208F
:1042400094F85B10090401EB0261084468630120E3
:1042500001F08EFA6079A179227A00EB0120E179F0
:10426000090401EB02610844A863012001F080FA0F
:1042700094F8210094F8221094F8242000EB0120F7
:1042800094F82310090401EB02610844E86301205B
:1042900001F06EFA94F8250094F8261094F828207E
:1042A00000EB012094F82710090401EB0261084497
:1042B0002864012001F05CFA94F8490094F84A104F
:1042C00094F84C2000EB012094F84B10090401EB0A
:1042D000026108446864012001F04AFA94F85D0024
:1042E00094F85E1094F8602000EB012094F85F10C1
:1042F000090401EB02610844A864012001F038FAC6
:1043000094F8290094F82A1094F82C2000EB01204E
:1043100094F82B10090401EB02610844E86494F856
:104320002D0094F82E1094F8302000EB012094F822
:104330002F10090401EB02610844286594F831004C
:1043400094F8321094F8342000EB012094F83310E4
:10435000090401EB02610844A86594F8350094F85B
:10436000361094F8382000EB012094F83710090437
:1043700001EB02610844E865706C01F0A9FA642061
:1043800001F0F6F997E6000030000020F40100206B
:104390004FF0FF38BB4CBC4D012604F5E077424698
:1043A000B849A86C01F0D6FD0128F8D12078313841
:1043B000052813D86178FF2910D106280AD2DFE832
:1043C00000F0030507111315002002E0EE7001E074
:1043D0000220E870E978ADA0FEF748FF2078212898
:1043E00006D00BE00320F4E70420F2E70520F0E715
:1043F00000231A46A349286D01F09CFC207822284E
:1044000002D1686C01F0E6FA2078112812D0122847
:1044100036D013285AD014287ED015287DD01628DF
:104420007CD017287BD018287AD0192879D01A2860
:1044300078D000E1E86A01F04BFA60783860A07843
:10444000E178627900EB012021794FF400590904E9
:1044500001EB026108447860A079E17900EB01206A
:10446000B8604846FEF7C7FE87493889091D022211
:104470000870000A48704846FEF777FEE86ACAE00E
:10448000286B01F025FA6078F860A078E17862790D
:1044900000EB012021794FF44059090401EB02613E
:1044A00008443861A079E17900EB01207861484641
:1044B000FEF7A1FE7449B88A891D02220870000A1D
:1044C00048704846FEF751FE286BA4E0686B01F087
:1044D000FFF96078B861A078E178627900EB01209B
:1044E00021794FF48049090401EB02610844F86125
:1044F000A079E17900EB012038624846FEF77BFEA7
:104500006149388C083102220870000A4870484618
:10451000FEF72BFE686B7EE005E02AE050E07DE0D0
:104520007FE081E083E0A86B01F0D2F96078B862A7
:10453000A078E178627900EB012021794FF4A0495D
:10454000090401EB02610844F862A079E17900EB0B
:10455000012038634846FEF74EFE4B49388E0A313B
:1045600002220870000A48704846FEF7FEFDA86B5C
:1045700051E0E86B01F0ACF96078F863A078E1787D
:10458000627900EB012021794FF4C049090401EB65
:10459000026108443864A079E17900EB0120786475
:1045A0004846FEF728FE3849B7F844000C3102228D
:1045B0000870000A48704846FEF7D7FDE86B2AE00D
:1045C000314806215830FEF755F8042001F0D0F8A4
:1045D0006078F864A078E178627900EB01202179B5
:1045E0004FF4E049090401EB026108443865A07901
:1045F000E17900EB012078654846FEF7FCFD224991
:10460000B7F854000E3102220870000A487048467C
:10461000FEF7ABFD286C01F05BF90CE0617801203E
:1046200007E06178052004E06178032001E061780B
:104630000420FFF799F82078012802D10021FEF725
:10464000D9FF2078022802D10021FEF7D3FF20787D
:10465000032802D10021FEF7CDFF2078042802D1E3
:104660000021FEF7C7FF2078052802D10021FEF7C0
:10467000C1FF207806287FF492AE3E65286C01F0D9
:10468000A9F98CE62C0100203000002070616765DC
:104690005F76616C3D2564FFFFFF000070B50C463E
:1046A0000546FBF7B5FE0C4E214630702846FBF759
:1046B000AFFE000A70704FF47A76334622462946E0
:1046C0000648FDF7E7FA3346BDE87040022202498A
:1046D0000248FDF7DFBA0000010000205805002065
:1046E000024601210148FCF7EEB800000018024024
:1046F0002DE9FC470022C821012001F083FA574C24
:1047000000223221A064012001F07CFAE064002242
:104710006421012001F076FA002620650C20CDE905
:1047200000064FF4007933464A464DA14F4801F048
:10473000E7FC04F12C000A25CDE90050002380227B
:104740004BA14E4801F0DCFC04F13000CDE90050F3
:10475000002380224AA14D4801F0D2FC04F134002C
:10476000CDE900500023802249A14C4801F0C8FC4B
:1047700004F13800CDE900500023802248A14B48C5
:1047800001F0BEFC04F13C00CDE900500023802282
:1047900047A14A4801F0B4FC04F14000CDE90050C3
:1047A0004FF480780023424645A1494801F0A8FC17
:1047B0000B27CDE900760023802246A1474801F06F
:1047C0009FFCCDE900760023802245A1464801F0F8
:1047D00097FCCDE900760023802244A1464801F0F1
:1047E0008FFC0E20CDE900060023424643A1464837
:1047F00001F086FCCDE900560023424643A146481D
:1048000001F07EFCCDE90056002380223FA1434801
:1048100001F076FC04F14400CDE9007000234A4623
:104820003FA1424801F06CFC606C01F0D3F8E06AF3
:1048300001F0D0F8206B01F0CDF8606B01F0CAF800
:10484000A06B01F0C7F8E06B01F0C4F8206C01F038
:10485000C1F8BDE8FC4701F079B800003000002045
:1048600073637265656E5F646174610091430008F3
:10487000737465705F6D6F746F723100AD520008B4
:10488000737465705F6D6F746F723200255300082A
:10489000737465705F6D6F746F7233009D530008A1
:1048A000737465705F6D6F746F7234001554000817
:1048B000737465705F6D6F746F7235008D5400088E
:1048C000736572766F5F6D6F746F723600000000F3
:1048D00015520008696E70757400000031490008B7
:1048E0006F75747075740000894D00086765745F9A
:1048F0007061676500000000393400086D6F746FE7
:10490000725F636865636B00694B0008736176656D
:104910005F70726100000000B1400008A9510008FA
:104920007461736B5F72756E5F310000854E0008B5
:10493000804CE078022801D005287CD100207E4DF3
:10494000606502212846FBF7B1FF616D0843606591
:1049500040212846FBF7AAFF616DDFF8E08141EABC
:104960004000606529154046FBF7A0FF616D41EAF4
:10497000800060654FF400514046FBF797FF616D82
:104980006F4E41EAC000606510213046FBF78EFF94
:10499000616D41EA0010606501212846FBF786FF42
:1049A000616D41EA4010606520212846FBF77EFFDB
:1049B000616D41EA80106065E9144046FBF776FFBF
:1049C000616DAF1441EAC010606539464046FBF79F
:1049D0006DFF616D41EA0020606520213046FBF7E4
:1049E00065FF616D41EA4020606539465548FBF737
:1049F0005DFF616D41EA8020606510212846FBF76C
:104A000055FF616D41EAC020606580212846FBF7B3
:104A10004DFF616D41EA0030606508213046FBF7CB
:104A200045FF616D41EA4030606540213046FBF74B
:104A30003DFF616D00E063E041EA80306065042184
:104A40002846FBF733FF616D41EAC03060650821FD
:104A50002846FBF72BFF616D41EA00406065691550
:104A60004046FBF723FF616D41EA40406065F90075
:104A70004046FBF71BFF616D41EA80406065802185
:104A80003046FBF713FF616D41EAC0406065E17895
:104A9000052902D002290ED032E00025606D29469A
:104AA000E84000F0010228A0FEF7E0FB6D1CEDB22B
:104AB000142DF3D324E0617802290DD00025606D18
:104AC000E84000F00102A91D23A0FEF7CFFB6D1CFA
:104AD000EDB2142DF3D313E0616A48400025A062C3
:104AE000A06AE840C00707D0606DE84000F001020E
:104AF000A91D19A0FEF7BAFB6D1CEDB2142DEFD362
:104B0000A07870B90025606DE84000F00102A91D91
:104B100011A0FEF7ABFB6D1CEDB2142DF3D30120F9
:104B2000A070E0786070606D60624FF4967000F085
:104B30001FFEFEE630000020000C0240001802407C
:104B400000040240000802407225642E76616C3D2C
:104B50002564FFFFFF00000070616765325F72250A
:104B6000643D2564FFFFFF00394E3A4CF07804287D
:104B700069D139A02168FEF779FB3BA0E168FEF717
:104B800075FB3DA0A169FEF771FB3FA0A16AFEF78E
:104B90006DFB41A0E16BFEF769FB43A0E16CFEF702
:104BA00065FB45A06168FEF761FB47A02169FEF740
:104BB0005DFB49A0E169FEF759FB4BA0E16AFEF7F6
:104BC00055FB4DA0216CFEF751FB4FA0216DFEF768
:104BD0004DFB206808B1012100E000214EA0FEF746
:104BE00045FBE06808B1012100E000214EA0FEF77E
:104BF0003DFBA06908B1012100E000214EA0FEF7B5
:104C000035FBA06A08B1012100E000214EA0FEF7AB
:104C10002DFBE06B08B1012100E000214EA0FEF762
:104C200025FBE06C08B1012100E000214EA0FEF759
:104C30001DFB0725002229464FA0FEF717FB6D1C20
:104C4000EDB20C2DF6D94FF4967000F091FD8DE782
:104C5000300000208C0200206E302E76616C3D25E5
:104C600064FFFFFF000000006E312E76616C3D2571
:104C700064FFFFFF000000006E322E76616C3D2560
:104C800064FFFFFF000000006E332E76616C3D254F
:104C900064FFFFFF000000006E342E76616C3D253E
:104CA00064FFFFFF000000006E352E76616C3D252D
:104CB00064FFFFFF000000006E362E76616C3D251C
:104CC00064FFFFFF000000006E372E76616C3D250B
:104CD00064FFFFFF000000006E382E76616C3D25FA
:104CE00064FFFFFF000000006E392E76616C3D25E9
:104CF00064FFFFFF000000006E31302E76616C3DD6
:104D00002564FFFFFF0000006E31312E76616C3D9F
:104D10002564FFFFFF00000072302E76616C3D2598
:104D200064FFFFFF0000000072312E76616C3D25AC
:104D300064FFFFFF0000000072322E76616C3D259B
:104D400064FFFFFF0000000072332E76616C3D258A
:104D500064FFFFFF0000000072342E76616C3D2579
:104D600064FFFFFF0000000072352E76616C3D2568
:104D700064FFFFFF000000007225642E76616C3D29
:104D80002564FFFFFF000000364CE078032863D164
:104D90000020354DA08308212846FBF787FDA18B15
:104DA0000843A08320212846FBF780FDA18B2F4ECE
:104DB00041EA4000A0834FF400513046FBF776FDF6
:104DC000A18B41EA8000A0834FF400413046FBF7FD
:104DD0006DFDA18B264F41EAC000A0830221384619
:104DE000FBF764FDA18B41EA0010A0830421284653
:104DF000FBF75CFDA18B41EA4010A08310212846FF
:104E0000FBF754FDA18B41EA8010A0834021284686
:104E1000FBF74CFDA18B41EAC010A0834FF4804109
:104E20003046FBF743FDA18B41EA0020A08301211E
:104E30003846FBF73BFDA18B002541EA4020A083CB
:104E4000A08B2946E84000F001020AA0FEF70EFA06
:104E50006D1CEDB20A2DF3D34FF4FA7000F088FC0C
:104E600093E70000300000200010024000080240DC
:104E7000001402407225642E76616C3D2564FFFFAC
:104E8000FF000000C1A0FEF7F1F90222C3491003A0
:104E9000FEF790F9C1490222891C4FF44050FEF7F9
:104EA00089F9BE490222091D5003FEF783F9BB4967
:104EB0000222891D4FF4A040FEF77CF9B749022277
:104EC00008314FF4C040FEF775F901210846FEF79E
:104ED00091FB0120FBF7E0FB01210220FEF78AFB9A
:104EE0000120FBF7D9FB01210320FEF783FB012002
:104EF000FBF7D2FB01210420FEF77CFB0120FBF72E
:104F0000CBFB01210520FEF775FB0120FBF7C4FB5D
:104F1000A2480178407801EB002080B2FDF746FD01
:104F20000120FBF7B9FB9D48801C0178407801EB1C
:104F3000002080B2FDF7B6FD0120FBF7ADFB9748DE
:104F4000001D0178407801EB002080B2FDF726FEBD
:104F50000120FBF7A1FB9148801D0178407801EB0F
:104F6000002080B2FDF796FE0120FBF795FB8B48F1
:104F700008300178407801EB002080B2FDF706FF91
:104F80000120FBF789FB00210420FEF7EDFB844C98
:104F90002046FDF76BFF0420FEF76CFA20B92120B4
:104FA000FDF7EAF9A04208D10020FDF75FFF7D4C34
:104FB000E0694042FDF762FE03E0322000F0D8FBDA
:104FC000E9E72120FDF728F9E169C84206D1002070
:104FD000FDF754FEA069FDF751FE03E0322000F01A
:104FE000C7FBEEE72120FDF717F9A169884206D13A
:104FF0000020FDF743FEE068FDF7C4FD03E032202A
:1050000000F0B6FBEEE72120FDF7AEF8E16888423C
:105010000DD10020FDF7B6FD01210846FEF7A4FBE7
:10502000A06D00F0A5FB6069FDF7ACFD03E0322048
:1050300000F09EFBE7E72120FDF796F861698842C2
:1050400003D00720FEF716FA30B10020FDF79AFDD5
:10505000A06AFDF78FFE03E0322000F089FBEAE74B
:105060002120FDF731F9A16A884203D0322000F0F7
:105070007FFBF5E7E06BFDF7F9FE0120FBF70CFB8A
:10508000E0684042FDF77EFD2120FDF76DF8E16804
:10509000C84203D00120FEF7EDF948B10520FEF724
:1050A000E9F918BB2120FDF767F9E16B88421DD0B3
:1050B0002120FDF759F8E168C84203D00120FEF72E
:1050C000D9F910B10020FDF75DFD0520FEF7D2F9FA
:1050D00028B92120FDF750F9E16B884202D1002068
:1050E000FDF7C4FE322000F043FBCDE7012105208F
:1050F000FEF73AFB00210520FEF736FBE06AFDF7DC
:1051000039FE2120FDF7E0F8E16A8842F9D1206CF0
:10511000FDF7ACFE2120FDF72FF9216C8842F9D173
:1051200000210120FEF720FB01210520FEF71CFBDA
:10513000E06AFDF71FFE2120FDF7C6F8E16A88420C
:10514000F9D101210320FEF70FFB606CFDF78EFE05
:105150000120FBF7A1FA606AFDF790FD0120FBF743
:105160009BFA606BFDF706FE0120FBF795FA2068BD
:10517000FDF78CFC0420FEF77DF910B10020FDF74F
:1051800075FE322000F0F4FAF4E700006231342EAC
:1051900062636F3D31303234FFFFFF00400000207A
:1051A000F0D8FFFF8C0200204FF4FA66114C124F2A
:1051B000A4F11A054FF4FA78304600F0D9FA022229
:1051C0000C493846FDF7F6FF20786178022200EBA3
:1051D0000120084900031A39FDF7ECFF297807A0E0
:1051E000FEF744F8404600F0C3FA002000F0E6FA6B
:1051F000E2E700004A00002000F07F00736572764D
:105200006F5F6C6F636174696F6E3D2564FFFFFFB4
:1052100000000000FDF764FADFF86080184E194CBA
:10522000194D4FF4004719A0FEF720F895F84C00EF
:10523000FFF756FA286D18E039464046FBF73BFB6E
:10524000686DB6FBF0F02062401EFDD22062394648
:105250004046FBF730FB686DB6FBF0F02062401E65
:10526000FDD22062286D401E28650028E4D10BA0E5
:10527000FDF7FCFF002000F0ADFBD4E70014024076
:1052800020A1070030000020EC02002062372E62CF
:10529000636F3D31303234FFFFFF000062372E6212
:1052A000636F3D3530373132FFFFFF00144C2089EA
:1052B00080B2FDF77BFB13A0FDF7D8FF0121084664
:1052C000FEF798F920680028606800D14042FDF799
:1052D000DDFB642000F04CFA2120FCF7EDFE216894
:1052E0000029616800D149428842F2D109A0FDF746
:1052F000BDFF642000F03CFA002000F06BFBD6E715
:10530000EC02002062322E62636F3D31303234FF96
:10531000FFFF000062322E62636F3D35303731325D
:10532000FFFFFF00144CA08A80B2FDF7BBFB13A067
:10533000FDF79CFF01210220FEF75CF9E0680028E0
:10534000206900D14042FDF71DFC642000F010FAF6
:105350002120FCF709FFE1680029216900D14942B9
:105360008842F2D109A0FDF781FF642000F000FA25
:10537000002000F02FFBD6E7EC02002062332E6203
:10538000636F3D31303234FFFFFF000062332E6225
:10539000636F3D3530373132FFFFFF00144C208CF6
:1053A00080B2FDF7FBFB13A0FDF760FF0121032096
:1053B000FEF720F9A0690028E06900D14042FDF71E
:1053C0005DFC642000F0D4F92120FCF725FFA169E1
:1053D0000029E16900D149428842F2D109A0FDF7D4
:1053E00045FF642000F0C4F9002000F0F3FAD6E78E
:1053F000EC02002062342E62636F3D31303234FFA4
:10540000FFFF000062342E62636F3D35303731326A
:10541000FFFFFF00144C208E80B2FDF73BFC13A071
:10542000FDF724FF01210420FEF7E4F8A06A00281C
:10543000E06A00D14042FDF79DFC642000F098F93D
:105440002120FCF741FFA16A0029E16A00D149420D
:105450008842F2D109A0FDF709FF642000F088F925
:10546000002000F0B7FAD6E7EC02002062352E6289
:10547000636F3D31303234FFFFFF000062352E6232
:10548000636F3D3530373132FFFFFF00154C00BFF1
:10549000B4F8440080B2FDF779FC13A0FDF7E6FEF6
:1054A00001210520FEF7A6F8E06B0028206C00D152
:1054B0004042FDF7DBFC642000F05AF92120FCF7A4
:1054C0005BFFE16B0029216C00D149428842F2D197
:1054D00009A0FDF7CBFE642000F04AF9002000F09F
:1054E00079FAD5E7EC02002062362E62636F3D3117
:1054F000303234FFFFFF000062362E62636F3D35AD
:1055000030373132FFFFFF00D0E9013201699A6084
:10551000D0E901235A604A68824201D182684A6018
:10552000002202610868401E086008687047000099
:10553000034B036003F15C0008608020106070473B
:10554000040C0020044B036003F15C0008604FF47E
:105550008070106070470000600E002000F10801AC
:105560004FF0FF32C0E90112C1600161002101600A
:10557000704700210161704730B50B685A1C02D09A
:1055800000F1080202E0026904E02246546825683E
:105590009D42FAD953684B6099608A6051600861F6
:1055A0000168491C016030BD42684A6093688B60A5
:1055B00093685960916008610168491C01607047F7
:1055C000502080F31188BFF34F8FBFF36F8F0A49CC
:1055D0004868401C486001280CD10848006810F059
:1055E000FF0F07D0502080F31188BFF34F8FBFF318
:1055F0006F8FFEE7704700001C01002004ED00E003
:105600000849486828B1401E486001D180F31188DC
:105610007047502080F31188BFF34F8FBFF36F8F17
:10562000FEE700001C01002070B500282AD0164DAE
:10563000A0F1080460686969084207D1502080F32E
:105640001188BFF34F8FBFF36F8FFEE722683AB127
:10565000502080F31188BFF34F8FBFF36F8FFEE7A9
:105660008843606000F004FA606869680844686014
:105670002046FEF79BFA2869401C2861BDE870406F
:1056800000F086BE70BD0000FC0000204FF0E0205E
:1056900000210161816105494FF47A720968B1FB0B
:1056A000F2F1491E4161072101617047A400002009
:1056B00010B5FAF7CFFD114910280ED300F1E02004
:1056C00090F8F0030A78904207D2502080F31188B6
:1056D000BFF34F8FBFF36F8FFEE7094800688968FB
:1056E00000F4E060884207D9502080F31188BFF3AE
:1056F0004F8FBFF36F8FFEE710BD00001C0100202D
:105700000CED00E010B5084B002200BF53F832400A
:105710001CB1521C082AF9D310BD43F8321003EB18
:10572000C201486010BD0000E805002070B51546B4
:105730000E460446FFF744FF94F944100020491C2C
:1057400001D184F8440094F94510491C01D184F832
:105750004500FFF755FFA06B28B92A46314604F1F2
:10576000240000F099F82046BDE87040FEF7E6BB43
:1057700010B5020014D00F48006B38B1502080F3F0
:105780001188BFF34F8FBFF36F8FFEE700F070F902
:1057900000211046FEF724F800F0FAFD002807D19A
:1057A00005494FF080500860BFF34F8FBFF36F8FF4
:1057B00010BD0000A800002004ED00E070B5054613
:1057C000FFF7FEFE1E4C05B92568281DFFF79CFE5D
:1057D000A86A18B105F11800FFF796FE606A401C30
:1057E00060622068854207D1291D1648FFF7DCFE5C
:1057F0006068401C606007E0A068401EA06028460A
:10580000FEF7F9F8FEF700FBFFF7FAFE60690028E3
:1058100014D02068854211D1206B38B1502080F31C
:105820001188BFF34F8FBFF36F8FFEE706494FF02C
:1058300080500860BFF34F8FBFF36F8F70BD0000C3
:10584000A8000020C40A002004ED00E002490A6A12
:105850000260C96841607047A8000020014901202A
:10586000C8617047A800002010B50C4650B1094926
:1058700009681831FFF780FE2046BDE8104001217D
:10588000FDF7AEBF502080F31188BFF34F8FBFF3F9
:105890006F8FFEE7A800002070B514460D4668B172
:1058A0000A4909681831FFF77FFE0CB14FF0FF3548
:1058B00021462846BDE87040FDF792BF502080F396
:1058C0001188BFF34F8FBFF36F8FFEE7A800002052
:1058D00070B504002AD01A4D286884422ED0FFF7F4
:1058E0006FFE2046FEF7FEFAE0B1201DFFF70CFE2A
:1058F000E06A2969884200D92861124900EB8000DA
:1059000001EB8000211DFFF74FFEE06A2968C96A9C
:10591000884207D30C494FF080500860BFF34F8F87
:10592000BFF36F8FBDE87040FFF76ABE502080F371
:105930001188BFF34F8FBFF36F8FFEE770BD00007C
:10594000A80000202806002004ED00E030B587B054
:105950000024039405AA04A903A80494FFF7E8FD12
:10596000DDE903010094CDE90110002315A11748DA
:10597000059A00F0F2FB164D0028E8621FD000F0F7
:1059800069FD012809D0401C19D1502080F31188ED
:10599000BFF34F8FBFF36F8FFEE7502080F3118866
:1059A000BFF34F8FBFF36F8F4FF0FF30A86201201E
:1059B0006861EC6007B0BDE8304000F093B807B014
:1059C00030BD000049444C4500000000793A000811
:1059D000A800002070B50446FFF7F2FD214D04B980
:1059E0002C68201DFFF790FDA06A18B104F1180083
:1059F000FFF78AFD211D1C48FFF7D6FD94F85800DB
:105A00000026012801D184F85860FFF7F9FD686984
:105A100028B1FFF7D5FDFEF7F7F9FFF7F1FD28688C
:105A2000844213D1686990B1286B38B1502080F35B
:105A30001188BFF34F8FBFF36F8FFEE70B494FF015
:105A400080500860BFF34F8FBFF36F8F70BD064863
:105A50000068A968884201D12E6070BDBDE8704021
:105A600000F00EB8A8000020D80A002004ED00E0E5
:105A70000248016B491C016370470000A800002028
:105A8000164810B5016B11B10121C16110BD002193
:105A9000C1610169124A01E0B9B1491E01EB8103FC
:105AA00052F82330002BF7D001EB810302EB830285
:105AB00002F1080453685B685360A34201D15B683C
:105AC0005360DA680260016110BD502080F31188D4
:105AD000BFF34F8FBFF36F8FFEE70000A8000020D9
